{
  "_format": "hh-sol-artifact-1",
  "contractName": "FirstWear",
  "sourceName": "contracts/FirstWear.sol",
  "abi": [
    {
      "inputs": [],
      "stateMutability": "nonpayable",
      "type": "constructor"
    },
    {
      "inputs": [],
      "name": "pay",
      "outputs": [],
      "stateMutability": "payable",
      "type": "function"
    },
    {
      "inputs": [],
      "name": "withdraw",
      "outputs": [],
      "stateMutability": "nonpayable",
      "type": "function"
    }
  ],
  "bytecode": "0x60806040526702c68af0bb14000060015534801561001c57600080fd5b50336000806101000a81548173ffffffffffffffffffffffffffffffffffffffff021916908373ffffffffffffffffffffffffffffffffffffffff1602179055506101a98061006c6000396000f3fe6080604052600436106100295760003560e01c80631b9265b81461002e5780633ccfd60b14610038575b600080fd5b61003661004f565b005b34801561004457600080fd5b5061004d610096565b005b600154341015610094576040517f08c379a000000000000000000000000000000000000000000000000000000000815260040161008b90610153565b60405180910390fd5b565b60008054906101000a900473ffffffffffffffffffffffffffffffffffffffff1673ffffffffffffffffffffffffffffffffffffffff166108fc479081150290604051600060405180830381858888f193505050506100f457600080fd5b565b600082825260208201905092915050565b7f70617920302e3265746820746f206275792073686f6500000000000000000000600082015250565b600061013d6016836100f6565b915061014882610107565b602082019050919050565b6000602082019050818103600083015261016c81610130565b905091905056fea26469706673582212208a2f7dac0326d128bb72911e074d2bb2ab2ae9b7ad7c23dd98f5b59e7c5e6b3264736f6c63430008090033",
  "linkReferences": {},
  "deployedLinkReferences": {}
}